{
  "_format": "hh-sol-artifact-1",
  "contractName": "MCT",
  "sourceName": "contracts/MCT.sol",
  "abi": [
    {
      "anonymous": false,
      "inputs": [
        {
          "indexed": false,
          "internalType": "address",
          "name": "previousAdmin",
          "type": "address"
        },
        {
          "indexed": false,
          "internalType": "address",
          "name": "newAdmin",
          "type": "address"
        }
      ],
      "name": "AdminChanged",
      "type": "event"
    },
    {
      "anonymous": false,
      "inputs": [
        {
          "indexed": true,
          "internalType": "address",
          "name": "owner",
          "type": "address"
        },
        {
          "indexed": true,
          "internalType": "address",
          "name": "spender",
          "type": "address"
        },
        {
          "indexed": false,
          "internalType": "uint256",
          "name": "value",
          "type": "uint256"
        }
      ],
      "name": "Approval",
      "type": "event"
    },
    {
      "anonymous": false,
      "inputs": [
        {
          "indexed": true,
          "internalType": "address",
          "name": "beacon",
          "type": "address"
        }
      ],
      "name": "BeaconUpgraded",
      "type": "event"
    },
    {
      "anonymous": false,
      "inputs": [
        {
          "indexed": true,
          "internalType": "address",
          "name": "previousOwner",
          "type": "address"
        },
        {
          "indexed": true,
          "internalType": "address",
          "name": "newOwner",
          "type": "address"
        }
      ],
      "name": "OwnershipTransferred",
      "type": "event"
    },
    {
      "anonymous": false,
      "inputs": [
        {
          "indexed": false,
          "internalType": "address",
          "name": "account",
          "type": "address"
        }
      ],
      "name": "Paused",
      "type": "event"
    },
    {
      "anonymous": false,
      "inputs": [
        {
          "indexed": false,
          "internalType": "uint256",
          "name": "id",
          "type": "uint256"
        }
      ],
      "name": "Snapshot",
      "type": "event"
    },
    {
      "anonymous": false,
      "inputs": [
        {
          "indexed": true,
          "internalType": "address",
          "name": "from",
          "type": "address"
        },
        {
          "indexed": true,
          "internalType": "address",
          "name": "to",
          "type": "address"
        },
        {
          "indexed": false,
          "internalType": "uint256",
          "name": "value",
          "type": "uint256"
        }
      ],
      "name": "Transfer",
      "type": "event"
    },
    {
      "anonymous": false,
      "inputs": [
        {
          "indexed": false,
          "internalType": "address",
          "name": "account",
          "type": "address"
        }
      ],
      "name": "Unpaused",
      "type": "event"
    },
    {
      "anonymous": false,
      "inputs": [
        {
          "indexed": true,
          "internalType": "address",
          "name": "implementation",
          "type": "address"
        }
      ],
      "name": "Upgraded",
      "type": "event"
    },
    {
      "inputs": [
        {
          "internalType": "address",
          "name": "owner",
          "type": "address"
        },
        {
          "internalType": "address",
          "name": "spender",
          "type": "address"
        }
      ],
      "name": "allowance",
      "outputs": [
        {
          "internalType": "uint256",
          "name": "",
          "type": "uint256"
        }
      ],
      "stateMutability": "view",
      "type": "function"
    },
    {
      "inputs": [
        {
          "internalType": "address",
          "name": "spender",
          "type": "address"
        },
        {
          "internalType": "uint256",
          "name": "amount",
          "type": "uint256"
        }
      ],
      "name": "approve",
      "outputs": [
        {
          "internalType": "bool",
          "name": "",
          "type": "bool"
        }
      ],
      "stateMutability": "nonpayable",
      "type": "function"
    },
    {
      "inputs": [
        {
          "internalType": "address",
          "name": "account",
          "type": "address"
        }
      ],
      "name": "balanceOf",
      "outputs": [
        {
          "internalType": "uint256",
          "name": "",
          "type": "uint256"
        }
      ],
      "stateMutability": "view",
      "type": "function"
    },
    {
      "inputs": [
        {
          "internalType": "address",
          "name": "account",
          "type": "address"
        },
        {
          "internalType": "uint256",
          "name": "snapshotId",
          "type": "uint256"
        }
      ],
      "name": "balanceOfAt",
      "outputs": [
        {
          "internalType": "uint256",
          "name": "",
          "type": "uint256"
        }
      ],
      "stateMutability": "view",
      "type": "function"
    },
    {
      "inputs": [
        {
          "internalType": "uint256",
          "name": "amount",
          "type": "uint256"
        }
      ],
      "name": "burn",
      "outputs": [],
      "stateMutability": "nonpayable",
      "type": "function"
    },
    {
      "inputs": [
        {
          "internalType": "address",
          "name": "account",
          "type": "address"
        },
        {
          "internalType": "uint256",
          "name": "amount",
          "type": "uint256"
        }
      ],
      "name": "burnFrom",
      "outputs": [],
      "stateMutability": "nonpayable",
      "type": "function"
    },
    {
      "inputs": [],
      "name": "decimals",
      "outputs": [
        {
          "internalType": "uint8",
          "name": "",
          "type": "uint8"
        }
      ],
      "stateMutability": "view",
      "type": "function"
    },
    {
      "inputs": [
        {
          "internalType": "address",
          "name": "spender",
          "type": "address"
        },
        {
          "internalType": "uint256",
          "name": "subtractedValue",
          "type": "uint256"
        }
      ],
      "name": "decreaseAllowance",
      "outputs": [
        {
          "internalType": "bool",
          "name": "",
          "type": "bool"
        }
      ],
      "stateMutability": "nonpayable",
      "type": "function"
    },
    {
      "inputs": [
        {
          "internalType": "address",
          "name": "spender",
          "type": "address"
        },
        {
          "internalType": "uint256",
          "name": "addedValue",
          "type": "uint256"
        }
      ],
      "name": "increaseAllowance",
      "outputs": [
        {
          "internalType": "bool",
          "name": "",
          "type": "bool"
        }
      ],
      "stateMutability": "nonpayable",
      "type": "function"
    },
    {
      "inputs": [],
      "name": "initialize",
      "outputs": [],
      "stateMutability": "nonpayable",
      "type": "function"
    },
    {
      "inputs": [
        {
          "internalType": "address",
          "name": "to",
          "type": "address"
        },
        {
          "internalType": "uint256",
          "name": "amount",
          "type": "uint256"
        }
      ],
      "name": "mint",
      "outputs": [],
      "stateMutability": "nonpayable",
      "type": "function"
    },
    {
      "inputs": [],
      "name": "name",
      "outputs": [
        {
          "internalType": "string",
          "name": "",
          "type": "string"
        }
      ],
      "stateMutability": "view",
      "type": "function"
    },
    {
      "inputs": [],
      "name": "owner",
      "outputs": [
        {
          "internalType": "address",
          "name": "",
          "type": "address"
        }
      ],
      "stateMutability": "view",
      "type": "function"
    },
    {
      "inputs": [],
      "name": "pause",
      "outputs": [],
      "stateMutability": "nonpayable",
      "type": "function"
    },
    {
      "inputs": [],
      "name": "paused",
      "outputs": [
        {
          "internalType": "bool",
          "name": "",
          "type": "bool"
        }
      ],
      "stateMutability": "view",
      "type": "function"
    },
    {
      "inputs": [],
      "name": "proxiableUUID",
      "outputs": [
        {
          "internalType": "bytes32",
          "name": "",
          "type": "bytes32"
        }
      ],
      "stateMutability": "view",
      "type": "function"
    },
    {
      "inputs": [],
      "name": "renounceOwnership",
      "outputs": [],
      "stateMutability": "nonpayable",
      "type": "function"
    },
    {
      "inputs": [],
      "name": "snapshot",
      "outputs": [],
      "stateMutability": "nonpayable",
      "type": "function"
    },
    {
      "inputs": [],
      "name": "symbol",
      "outputs": [
        {
          "internalType": "string",
          "name": "",
          "type": "string"
        }
      ],
      "stateMutability": "view",
      "type": "function"
    },
    {
      "inputs": [],
      "name": "totalSupply",
      "outputs": [
        {
          "internalType": "uint256",
          "name": "",
          "type": "uint256"
        }
      ],
      "stateMutability": "view",
      "type": "function"
    },
    {
      "inputs": [
        {
          "internalType": "uint256",
          "name": "snapshotId",
          "type": "uint256"
        }
      ],
      "name": "totalSupplyAt",
      "outputs": [
        {
          "internalType": "uint256",
          "name": "",
          "type": "uint256"
        }
      ],
      "stateMutability": "view",
      "type": "function"
    },
    {
      "inputs": [
        {
          "internalType": "address",
          "name": "to",
          "type": "address"
        },
        {
          "internalType": "uint256",
          "name": "amount",
          "type": "uint256"
        }
      ],
      "name": "transfer",
      "outputs": [
        {
          "internalType": "bool",
          "name": "",
          "type": "bool"
        }
      ],
      "stateMutability": "nonpayable",
      "type": "function"
    },
    {
      "inputs": [
        {
          "internalType": "address",
          "name": "from",
          "type": "address"
        },
        {
          "internalType": "address",
          "name": "to",
          "type": "address"
        },
        {
          "internalType": "uint256",
          "name": "amount",
          "type": "uint256"
        }
      ],
      "name": "transferFrom",
      "outputs": [
        {
          "internalType": "bool",
          "name": "",
          "type": "bool"
        }
      ],
      "stateMutability": "nonpayable",
      "type": "function"
    },
    {
      "inputs": [
        {
          "internalType": "address",
          "name": "newOwner",
          "type": "address"
        }
      ],
      "name": "transferOwnership",
      "outputs": [],
      "stateMutability": "nonpayable",
      "type": "function"
    },
    {
      "inputs": [],
      "name": "unpause",
      "outputs": [],
      "stateMutability": "nonpayable",
      "type": "function"
    },
    {
      "inputs": [
        {
          "internalType": "address",
          "name": "newImplementation",
          "type": "address"
        }
      ],
      "name": "upgradeTo",
      "outputs": [],
      "stateMutability": "nonpayable",
      "type": "function"
    },
    {
      "inputs": [
        {
          "internalType": "address",
          "name": "newImplementation",
          "type": "address"
        },
        {
          "internalType": "bytes",
          "name": "data",
          "type": "bytes"
        }
      ],
      "name": "upgradeToAndCall",
      "outputs": [],
      "stateMutability": "payable",
      "type": "function"
    }
  ],
  "bytecode": "0x60a06040523060601b60805234801561001757600080fd5b5060805160601c612320610052600039600081816105d801528181610621015281816107cf0152818161080f015261089e01526123206000f3fe60806040526004361061019c5760003560e01c80635c975abb116100ec57806395d89b411161008a578063a457c2d711610064578063a457c2d714610455578063a9059cbb14610475578063dd62ed3e14610495578063f2fde38b146104db57600080fd5b806395d89b411461040b5780639711715a14610420578063981b24d01461043557600080fd5b806379cc6790116100c657806379cc6790146103995780638129fc1c146103b95780638456cb59146103ce5780638da5cb5b146103e357600080fd5b80635c975abb1461033657806370a082311461034e578063715018a61461038457600080fd5b8063395093511161015957806342966c681161013357806342966c68146102ce5780634ee2cd7e146102ee5780634f1ef2861461030e57806352d1902d1461032157600080fd5b806339509351146102795780633f4ba83a1461029957806340c10f19146102ae57600080fd5b806306fdde03146101a1578063095ea7b3146101cc57806318160ddd146101fc57806323b872dd1461021b578063313ce5671461023b5780633659cfe614610257575b600080fd5b3480156101ad57600080fd5b506101b66104fb565b6040516101c39190611f71565b60405180910390f35b3480156101d857600080fd5b506101ec6101e7366004611efc565b61058d565b60405190151581526020016101c3565b34801561020857600080fd5b506035545b6040519081526020016101c3565b34801561022757600080fd5b506101ec610236366004611e04565b6105a7565b34801561024757600080fd5b50604051601281526020016101c3565b34801561026357600080fd5b50610277610272366004611db8565b6105cd565b005b34801561028557600080fd5b506101ec610294366004611efc565b6106b6565b3480156102a557600080fd5b506102776106f5565b3480156102ba57600080fd5b506102776102c9366004611efc565b610729565b3480156102da57600080fd5b506102776102e9366004611f3d565b610761565b3480156102fa57600080fd5b5061020d610309366004611efc565b61076b565b61027761031c366004611e3f565b6107c4565b34801561032d57600080fd5b5061020d610891565b34801561034257600080fd5b5060fb5460ff166101ec565b34801561035a57600080fd5b5061020d610369366004611db8565b6001600160a01b031660009081526033602052604090205490565b34801561039057600080fd5b50610277610944565b3480156103a557600080fd5b506102776103b4366004611efc565b610978565b3480156103c557600080fd5b5061027761098d565b3480156103da57600080fd5b50610277610ad5565b3480156103ef57600080fd5b5060c9546040516001600160a01b0390911681526020016101c3565b34801561041757600080fd5b506101b6610b07565b34801561042c57600080fd5b50610277610b16565b34801561044157600080fd5b5061020d610450366004611f3d565b610b48565b34801561046157600080fd5b506101ec610470366004611efc565b610b73565b34801561048157600080fd5b506101ec610490366004611efc565b610c10565b3480156104a157600080fd5b5061020d6104b0366004611dd2565b6001600160a01b03918216600090815260346020908152604080832093909416825291909152205490565b3480156104e757600080fd5b506102776104f6366004611db8565b610c1e565b60606036805461050a9061223c565b80601f01602080910402602001604051908101604052809291908181526020018280546105369061223c565b80156105835780601f1061055857610100808354040283529160200191610583565b820191906000526020600020905b81548152906001019060200180831161056657829003601f168201915b5050505050905090565b60003361059b818585610cb6565b60019150505b92915050565b6000336105b5858285610dda565b6105c0858585610e6c565b60019150505b9392505050565b306001600160a01b037f000000000000000000000000000000000000000000000000000000000000000016141561061f5760405162461bcd60e51b815260040161061690611fa4565b60405180910390fd5b7f00000000000000000000000000000000000000000000000000000000000000006001600160a01b03166106686000805160206122a4833981519152546001600160a01b031690565b6001600160a01b03161461068e5760405162461bcd60e51b815260040161061690611ff0565b61069781611045565b604080516000808252602082019092526106b39183919061106f565b50565b3360008181526034602090815260408083206001600160a01b038716845290915281205490919061059b90829086906106f09087906120bc565b610cb6565b60c9546001600160a01b0316331461071f5760405162461bcd60e51b81526004016106169061203c565b6107276111ee565b565b60c9546001600160a01b031633146107535760405162461bcd60e51b81526004016106169061203c565b61075d8282611281565b5050565b6106b3338261136c565b6001600160a01b0382166000908152609760205260408120819081906107929085906114c6565b91509150816107b9576001600160a01b0385166000908152603360205260409020546107bb565b805b95945050505050565b306001600160a01b037f000000000000000000000000000000000000000000000000000000000000000016141561080d5760405162461bcd60e51b815260040161061690611fa4565b7f00000000000000000000000000000000000000000000000000000000000000006001600160a01b03166108566000805160206122a4833981519152546001600160a01b031690565b6001600160a01b03161461087c5760405162461bcd60e51b815260040161061690611ff0565b61088582611045565b61075d8282600161106f565b6000306001600160a01b037f000000000000000000000000000000000000000000000000000000000000000016146109315760405162461bcd60e51b815260206004820152603860248201527f555550535570677261646561626c653a206d757374206e6f742062652063616c60448201527f6c6564207468726f7567682064656c656761746563616c6c00000000000000006064820152608401610616565b506000805160206122a483398151915290565b60c9546001600160a01b0316331461096e5760405162461bcd60e51b81526004016106169061203c565b61072760006115d1565b610983823383610dda565b61075d828261136c565b600054610100900460ff166109a85760005460ff16156109ac565b303b155b610a0f5760405162461bcd60e51b815260206004820152602e60248201527f496e697469616c697a61626c653a20636f6e747261637420697320616c72656160448201526d191e481a5b9a5d1a585b1a5e995960921b6064820152608401610616565b600054610100900460ff16158015610a31576000805461ffff19166101011790555b610a77604051806040016040528060038152602001621350d560ea1b8152506040518060400160405280600981526020016826a1aa103a37b5b2b760b91b815250611623565b610a7f611654565b610a87611654565b610a8f61167b565b610a976116aa565b610a9f611654565b610ac133610aaf6012600a61212f565b610abc90629896806121da565b611281565b80156106b3576000805461ff001916905550565b60c9546001600160a01b03163314610aff5760405162461bcd60e51b81526004016106169061203c565b6107276116d9565b60606037805461050a9061223c565b60c9546001600160a01b03163314610b405760405162461bcd60e51b81526004016106169061203c565b6106b3611754565b6000806000610b588460986114c6565b9150915081610b6957603554610b6b565b805b949350505050565b3360008181526034602090815260408083206001600160a01b038716845290915281205490919083811015610bf85760405162461bcd60e51b815260206004820152602560248201527f45524332303a2064656372656173656420616c6c6f77616e63652062656c6f77604482015264207a65726f60d81b6064820152608401610616565b610c058286868403610cb6565b506001949350505050565b60003361059b818585610e6c565b60c9546001600160a01b03163314610c485760405162461bcd60e51b81526004016106169061203c565b6001600160a01b038116610cad5760405162461bcd60e51b815260206004820152602660248201527f4f776e61626c653a206e6577206f776e657220697320746865207a65726f206160448201526564647265737360d01b6064820152608401610616565b6106b3816115d1565b6001600160a01b038316610d185760405162461bcd60e51b8152602060048201526024808201527f45524332303a20617070726f76652066726f6d20746865207a65726f206164646044820152637265737360e01b6064820152608401610616565b6001600160a01b038216610d795760405162461bcd60e51b815260206004820152602260248201527f45524332303a20617070726f766520746f20746865207a65726f206164647265604482015261737360f01b6064820152608401610616565b6001600160a01b0383811660008181526034602090815260408083209487168084529482529182902085905590518481527f8c5be1e5ebec7d5bd14f71427d1e84f3dd0314c0f7b2291e5b200ac8c7c3b925910160405180910390a3505050565b6001600160a01b038381166000908152603460209081526040808320938616835292905220546000198114610e665781811015610e595760405162461bcd60e51b815260206004820152601d60248201527f45524332303a20696e73756666696369656e7420616c6c6f77616e63650000006044820152606401610616565b610e668484848403610cb6565b50505050565b6001600160a01b038316610ed05760405162461bcd60e51b815260206004820152602560248201527f45524332303a207472616e736665722066726f6d20746865207a65726f206164604482015264647265737360d81b6064820152608401610616565b6001600160a01b038216610f325760405162461bcd60e51b815260206004820152602360248201527f45524332303a207472616e7366657220746f20746865207a65726f206164647260448201526265737360e81b6064820152608401610616565b610f3d8383836117ae565b6001600160a01b03831660009081526033602052604090205481811015610fb55760405162461bcd60e51b815260206004820152602660248201527f45524332303a207472616e7366657220616d6f756e7420657863656564732062604482015265616c616e636560d01b6064820152608401610616565b6001600160a01b03808516600090815260336020526040808220858503905591851681529081208054849290610fec9084906120bc565b92505081905550826001600160a01b0316846001600160a01b03167fddf252ad1be2c89b69c2b068fc378daa952ba7f163c4a11628f55a4df523b3ef8460405161103891815260200190565b60405180910390a3610e66565b60c9546001600160a01b031633146106b35760405162461bcd60e51b81526004016106169061203c565b7f4910fdfa16fed3260ed0e7147f7cc6da11a60208b5b9406d12a635614ffd91435460ff16156110a7576110a2836117ff565b505050565b826001600160a01b03166352d1902d6040518163ffffffff1660e01b815260040160206040518083038186803b1580156110e057600080fd5b505afa925050508015611110575060408051601f3d908101601f1916820190925261110d91810190611f25565b60015b6111735760405162461bcd60e51b815260206004820152602e60248201527f45524331393637557067726164653a206e657720696d706c656d656e7461746960448201526d6f6e206973206e6f74205555505360901b6064820152608401610616565b6000805160206122a483398151915281146111e25760405162461bcd60e51b815260206004820152602960248201527f45524331393637557067726164653a20756e737570706f727465642070726f786044820152681a58589b195555525160ba1b6064820152608401610616565b506110a283838361189b565b60fb5460ff166112375760405162461bcd60e51b815260206004820152601460248201527314185d5cd8589b194e881b9bdd081c185d5cd95960621b6044820152606401610616565b60fb805460ff191690557f5db9ee0a495bf2e6ff9c91a7834c1ba4fdd244a5e8aa4e537bd38aeae4b073aa335b6040516001600160a01b03909116815260200160405180910390a1565b6001600160a01b0382166112d75760405162461bcd60e51b815260206004820152601f60248201527f45524332303a206d696e7420746f20746865207a65726f2061646472657373006044820152606401610616565b6112e3600083836117ae565b80603560008282546112f591906120bc565b90915550506001600160a01b038216600090815260336020526040812080548392906113229084906120bc565b90915550506040518181526001600160a01b038316906000907fddf252ad1be2c89b69c2b068fc378daa952ba7f163c4a11628f55a4df523b3ef9060200160405180910390a35050565b6001600160a01b0382166113cc5760405162461bcd60e51b815260206004820152602160248201527f45524332303a206275726e2066726f6d20746865207a65726f206164647265736044820152607360f81b6064820152608401610616565b6113d8826000836117ae565b6001600160a01b0382166000908152603360205260409020548181101561144c5760405162461bcd60e51b815260206004820152602260248201527f45524332303a206275726e20616d6f756e7420657863656564732062616c616e604482015261636560f01b6064820152608401610616565b6001600160a01b038316600090815260336020526040812083830390556035805484929061147b9084906121f9565b90915550506040518281526000906001600160a01b038516907fddf252ad1be2c89b69c2b068fc378daa952ba7f163c4a11628f55a4df523b3ef9060200160405180910390a3505050565b600080600084116115125760405162461bcd60e51b815260206004820152601660248201527504552433230536e617073686f743a20696420697320360541b6044820152606401610616565b61151a6118c0565b8411156115695760405162461bcd60e51b815260206004820152601d60248201527f4552433230536e617073686f743a206e6f6e6578697374656e742069640000006044820152606401610616565b600061157584866118d0565b845490915081141561158e5760008092509250506115ca565b60018460010182815481106115b357634e487b7160e01b600052603260045260246000fd5b906000526020600020015492509250506115ca565b505b9250929050565b60c980546001600160a01b038381166001600160a01b0319831681179093556040519116919082907f8be0079c531659141344cd1fd0a4f28419497f9722a3daafe3b4186f6b6457e090600090a35050565b600054610100900460ff1661164a5760405162461bcd60e51b815260040161061690612071565b61075d82826119af565b600054610100900460ff166107275760405162461bcd60e51b815260040161061690612071565b600054610100900460ff166116a25760405162461bcd60e51b815260040161061690612071565b6107276119fd565b600054610100900460ff166116d15760405162461bcd60e51b815260040161061690612071565b610727611a2d565b60fb5460ff161561171f5760405162461bcd60e51b815260206004820152601060248201526f14185d5cd8589b194e881c185d5cd95960821b6044820152606401610616565b60fb805460ff191660011790557f62e78cea01bee320cd4e420270b5ea74000d11b0c9f74754ebdbfc544b05a2586112643390565b6000611764609a80546001019055565b600061176e6118c0565b90507f8030e83b04d87bef53480e26263266d6ca66863aa8506aca6f2559d18aa1cb67816040516117a191815260200190565b60405180910390a1919050565b60fb5460ff16156117f45760405162461bcd60e51b815260206004820152601060248201526f14185d5cd8589b194e881c185d5cd95960821b6044820152606401610616565b6110a2838383611a60565b6001600160a01b0381163b61186c5760405162461bcd60e51b815260206004820152602d60248201527f455243313936373a206e657720696d706c656d656e746174696f6e206973206e60448201526c1bdd08184818dbdb9d1c9858dd609a1b6064820152608401610616565b6000805160206122a483398151915280546001600160a01b0319166001600160a01b0392909216919091179055565b6118a483611aa8565b6000825111806118b15750805b156110a257610e668383611ae8565b60006118cb609a5490565b905090565b81546000906118e1575060006105a1565b82546000905b8082101561194b5760006118fb8383611bd3565b90508486828154811061191e57634e487b7160e01b600052603260045260246000fd5b9060005260206000200154111561193757809150611945565b6119428160016120bc565b92505b506118e7565b60008211801561198e575083856119636001856121f9565b8154811061198157634e487b7160e01b600052603260045260246000fd5b9060005260206000200154145b156119a75761199e6001836121f9565b925050506105a1565b5090506105a1565b600054610100900460ff166119d65760405162461bcd60e51b815260040161061690612071565b81516119e9906036906020850190611d08565b5080516110a2906037906020840190611d08565b600054610100900460ff16611a245760405162461bcd60e51b815260040161061690612071565b610727336115d1565b600054610100900460ff16611a545760405162461bcd60e51b815260040161061690612071565b60fb805460ff19169055565b6001600160a01b038316611a7f57611a7782611bee565b6110a2611c21565b6001600160a01b038216611a9657611a7783611bee565b611a9f83611bee565b6110a282611bee565b611ab1816117ff565b6040516001600160a01b038216907fbc7cd75a20ee27fd9adebab32041f755214dbc6bffa90cc0225b39da2e5c2d3b90600090a250565b60606001600160a01b0383163b611b505760405162461bcd60e51b815260206004820152602660248201527f416464726573733a2064656c65676174652063616c6c20746f206e6f6e2d636f6044820152651b9d1c9858dd60d21b6064820152608401610616565b600080846001600160a01b031684604051611b6b9190611f55565b600060405180830381855af49150503d8060008114611ba6576040519150601f19603f3d011682016040523d82523d6000602084013e611bab565b606091505b50915091506107bb82826040518060600160405280602781526020016122c460279139611c2f565b6000611be260028484186120d4565b6105c6908484166120bc565b6001600160a01b03811660009081526097602090815260408083206033909252909120546106b39190611c68565b611c68565b6107276098611c1c60355490565b60608315611c3e5750816105c6565b825115611c4e5782518084602001fd5b8160405162461bcd60e51b81526004016106169190611f71565b6000611c726118c0565b905080611c7e84611cb2565b10156110a2578254600180820185556000858152602080822090930193909355938401805494850181558252902090910155565b8054600090611cc357506000919050565b81548290611cd3906001906121f9565b81548110611cf157634e487b7160e01b600052603260045260246000fd5b90600052602060002001549050919050565b919050565b828054611d149061223c565b90600052602060002090601f016020900481019282611d365760008555611d7c565b82601f10611d4f57805160ff1916838001178555611d7c565b82800160010185558215611d7c579182015b82811115611d7c578251825591602001919060010190611d61565b50611d88929150611d8c565b5090565b5b80821115611d885760008155600101611d8d565b80356001600160a01b0381168114611d0357600080fd5b600060208284031215611dc9578081fd5b6105c682611da1565b60008060408385031215611de4578081fd5b611ded83611da1565b9150611dfb60208401611da1565b90509250929050565b600080600060608486031215611e18578081fd5b611e2184611da1565b9250611e2f60208501611da1565b9150604084013590509250925092565b60008060408385031215611e51578182fd5b611e5a83611da1565b9150602083013567ffffffffffffffff80821115611e76578283fd5b818501915085601f830112611e89578283fd5b813581811115611e9b57611e9b61228d565b604051601f8201601f19908116603f01168101908382118183101715611ec357611ec361228d565b81604052828152886020848701011115611edb578586fd5b82602086016020830137856020848301015280955050505050509250929050565b60008060408385031215611f0e578182fd5b611f1783611da1565b946020939093013593505050565b600060208284031215611f36578081fd5b5051919050565b600060208284031215611f4e578081fd5b5035919050565b60008251611f67818460208701612210565b9190910192915050565b6020815260008251806020840152611f90816040850160208701612210565b601f01601f19169190910160400192915050565b6020808252602c908201527f46756e6374696f6e206d7573742062652063616c6c6564207468726f7567682060408201526b19195b1959d85d1958d85b1b60a21b606082015260800190565b6020808252602c908201527f46756e6374696f6e206d7573742062652063616c6c6564207468726f7567682060408201526b6163746976652070726f787960a01b606082015260800190565b6020808252818101527f4f776e61626c653a2063616c6c6572206973206e6f7420746865206f776e6572604082015260600190565b6020808252602b908201527f496e697469616c697a61626c653a20636f6e7472616374206973206e6f74206960408201526a6e697469616c697a696e6760a81b606082015260800190565b600082198211156120cf576120cf612277565b500190565b6000826120ef57634e487b7160e01b81526012600452602481fd5b500490565b600181815b808511156115c857816000190482111561211557612115612277565b8085161561212257918102915b93841c93908002906120f9565b60006105c660ff841683600082612148575060016105a1565b81612155575060006105a1565b816001811461216b576002811461217557612191565b60019150506105a1565b60ff84111561218657612186612277565b50506001821b6105a1565b5060208310610133831016604e8410600b84101617156121b4575081810a6105a1565b6121be83836120f4565b80600019048211156121d2576121d2612277565b029392505050565b60008160001904831182151516156121f4576121f4612277565b500290565b60008282101561220b5761220b612277565b500390565b60005b8381101561222b578181015183820152602001612213565b83811115610e665750506000910152565b600181811c9082168061225057607f821691505b6020821081141561227157634e487b7160e01b600052602260045260246000fd5b50919050565b634e487b7160e01b600052601160045260246000fd5b634e487b7160e01b600052604160045260246000fdfe360894a13ba1a3210667c828492db98dca3e2076cc3735a920a3ca505d382bbc416464726573733a206c6f772d6c6576656c2064656c65676174652063616c6c206661696c6564a2646970667358221220da8cfb17690cb78ff15cd5e0f42c79d232e7f63a52a9fba86dd87245bf9ac14564736f6c63430008040033",
  "linkReferences": {},
  "deployedLinkReferences": {}
}