{
  "_format": "hh-sol-artifact-1",
  "contractName": "Logic",
  "sourceName": "contracts/Logic.sol",
  "abi": [
    {
      "anonymous": false,
      "inputs": [
        {
          "indexed": false,
          "internalType": "address",
          "name": "previousAdmin",
          "type": "address"
        },
        {
          "indexed": false,
          "internalType": "address",
          "name": "newAdmin",
          "type": "address"
        }
      ],
      "name": "AdminChanged",
      "type": "event"
    },
    {
      "anonymous": false,
      "inputs": [
        {
          "indexed": true,
          "internalType": "address",
          "name": "beacon",
          "type": "address"
        }
      ],
      "name": "BeaconUpgraded",
      "type": "event"
    },
    {
      "anonymous": false,
      "inputs": [
        {
          "indexed": true,
          "internalType": "address",
          "name": "previousOwner",
          "type": "address"
        },
        {
          "indexed": true,
          "internalType": "address",
          "name": "newOwner",
          "type": "address"
        }
      ],
      "name": "OwnershipTransferred",
      "type": "event"
    },
    {
      "anonymous": false,
      "inputs": [
        {
          "indexed": true,
          "internalType": "address",
          "name": "implementation",
          "type": "address"
        }
      ],
      "name": "Upgraded",
      "type": "event"
    },
    {
      "anonymous": false,
      "inputs": [
        {
          "indexed": true,
          "internalType": "address",
          "name": "user",
          "type": "address"
        },
        {
          "indexed": false,
          "internalType": "bool",
          "name": "minted",
          "type": "bool"
        }
      ],
      "name": "UserMinted",
      "type": "event"
    },
    {
      "inputs": [
        {
          "internalType": "address",
          "name": "user",
          "type": "address"
        }
      ],
      "name": "ifUserMinted",
      "outputs": [
        {
          "internalType": "bool",
          "name": "result",
          "type": "bool"
        }
      ],
      "stateMutability": "view",
      "type": "function"
    },
    {
      "inputs": [
        {
          "internalType": "address",
          "name": "_token",
          "type": "address"
        }
      ],
      "name": "initialize",
      "outputs": [],
      "stateMutability": "nonpayable",
      "type": "function"
    },
    {
      "inputs": [],
      "name": "owner",
      "outputs": [
        {
          "internalType": "address",
          "name": "",
          "type": "address"
        }
      ],
      "stateMutability": "view",
      "type": "function"
    },
    {
      "inputs": [],
      "name": "proxiableUUID",
      "outputs": [
        {
          "internalType": "bytes32",
          "name": "",
          "type": "bytes32"
        }
      ],
      "stateMutability": "view",
      "type": "function"
    },
    {
      "inputs": [],
      "name": "renounceOwnership",
      "outputs": [],
      "stateMutability": "nonpayable",
      "type": "function"
    },
    {
      "inputs": [
        {
          "internalType": "uint256",
          "name": "surveytotal",
          "type": "uint256"
        }
      ],
      "name": "survey",
      "outputs": [],
      "stateMutability": "payable",
      "type": "function"
    },
    {
      "inputs": [],
      "name": "tokenAccepted",
      "outputs": [
        {
          "internalType": "contract IERC20Upgradeable",
          "name": "",
          "type": "address"
        }
      ],
      "stateMutability": "view",
      "type": "function"
    },
    {
      "inputs": [
        {
          "internalType": "address",
          "name": "newOwner",
          "type": "address"
        }
      ],
      "name": "transferOwnership",
      "outputs": [],
      "stateMutability": "nonpayable",
      "type": "function"
    },
    {
      "inputs": [
        {
          "internalType": "address",
          "name": "newImplementation",
          "type": "address"
        }
      ],
      "name": "upgradeTo",
      "outputs": [],
      "stateMutability": "nonpayable",
      "type": "function"
    },
    {
      "inputs": [
        {
          "internalType": "address",
          "name": "newImplementation",
          "type": "address"
        },
        {
          "internalType": "bytes",
          "name": "data",
          "type": "bytes"
        }
      ],
      "name": "upgradeToAndCall",
      "outputs": [],
      "stateMutability": "payable",
      "type": "function"
    },
    {
      "inputs": [
        {
          "internalType": "address payable",
          "name": "_addr",
          "type": "address"
        }
      ],
      "name": "winthdraw",
      "outputs": [],
      "stateMutability": "nonpayable",
      "type": "function"
    },
    {
      "inputs": [
        {
          "internalType": "address payable",
          "name": "_addr",
          "type": "address"
        },
        {
          "internalType": "uint256",
          "name": "_amount",
          "type": "uint256"
        }
      ],
      "name": "winthdrawNXT",
      "outputs": [],
      "stateMutability": "nonpayable",
      "type": "function"
    }
  ],
  "bytecode": "0x60a06040523060601b60805234801561001757600080fd5b5060805160601c611240610052600039600081816102420152818161028b0152818161066d015281816106ad015261073c01526112406000f3fe6080604052600436106100a75760003560e01c8063715018a611610064578063715018a61461015c5780637482fefe14610171578063827f38cf146101a15780638da5cb5b146101d9578063c4d66de8146101f7578063f2fde38b1461021757600080fd5b80633659cfe6146100ac5780633fb32c16146100ce5780634938e4c3146100e15780634e4ae9ea146101015780634f1ef2861461012157806352d1902d14610134575b600080fd5b3480156100b857600080fd5b506100cc6100c7366004610e84565b610237565b005b6100cc6100dc366004610fc2565b610320565b3480156100ed57600080fd5b506100cc6100fc366004610e84565b610544565b34801561010d57600080fd5b506100cc61011c366004610ea0565b6105a7565b6100cc61012f366004610ecb565b610662565b34801561014057600080fd5b5061014961072f565b6040519081526020015b60405180910390f35b34801561016857600080fd5b506100cc6107e2565b34801561017d57600080fd5b5061019161018c366004610e84565b610818565b6040519015158152602001610153565b3480156101ad57600080fd5b5060fd546101c1906001600160a01b031681565b6040516001600160a01b039091168152602001610153565b3480156101e557600080fd5b5060c9546001600160a01b03166101c1565b34801561020357600080fd5b506100cc610212366004610e84565b61084c565b34801561022357600080fd5b506100cc610232366004610e84565b610935565b306001600160a01b037f00000000000000000000000000000000000000000000000000000000000000001614156102895760405162461bcd60e51b815260040161028090611029565b60405180910390fd5b7f00000000000000000000000000000000000000000000000000000000000000006001600160a01b03166102d26000805160206111c4833981519152546001600160a01b031690565b6001600160a01b0316146102f85760405162461bcd60e51b815260040161028090611075565b610301816109cd565b6040805160008082526020820190925261031d918391906109f7565b50565b600260655414156103735760405162461bcd60e51b815260206004820152601f60248201527f5265656e7472616e637947756172643a207265656e7472616e742063616c6c006044820152606401610280565b6002606555806103c55760405162461bcd60e51b815260206004820152601860248201527f506c656173652073656e6420736f6d6520616e737765727300000000000000006044820152606401610280565b6103ce33610818565b1561041b5760405162461bcd60e51b815260206004820152601e60248201527f616c7265616479206d696e74656420666f7220746869732073757276657900006044820152606401610280565b6040805180820182523380825260016020808401918252600083815260ff909152939093209151825493511515600160a01b026001600160a81b03199094166001600160a01b03918216179390931790915560fd5460fe5492169163a9059cbb91906104879085611141565b6040516001600160e01b031960e085901b1681526001600160a01b0390921660048301526024820152604401602060405180830381600087803b1580156104cd57600080fd5b505af11580156104e1573d6000803e3d6000fd5b505050506040513d601f19601f820116820180604052508101906105059190610f8a565b506040516001815233907f65167b3922cc488e0b05fd90515f50053ff2cf658f626dbc3bdd26f8ba2714509060200160405180910390a2506001606555565b60c9546001600160a01b0316331461056e5760405162461bcd60e51b8152600401610280906110c1565b6040516001600160a01b038216904780156108fc02916000818181858888f193505050501580156105a3573d6000803e3d6000fd5b5050565b60c9546001600160a01b031633146105d15760405162461bcd60e51b8152600401610280906110c1565b60fd546040516323b872dd60e01b81523060048201526001600160a01b03848116602483015260448201849052909116906323b872dd90606401602060405180830381600087803b15801561062557600080fd5b505af1158015610639573d6000803e3d6000fd5b505050506040513d601f19601f8201168201806040525081019061065d9190610f8a565b505050565b306001600160a01b037f00000000000000000000000000000000000000000000000000000000000000001614156106ab5760405162461bcd60e51b815260040161028090611029565b7f00000000000000000000000000000000000000000000000000000000000000006001600160a01b03166106f46000805160206111c4833981519152546001600160a01b031690565b6001600160a01b03161461071a5760405162461bcd60e51b815260040161028090611075565b610723826109cd565b6105a3828260016109f7565b6000306001600160a01b037f000000000000000000000000000000000000000000000000000000000000000016146107cf5760405162461bcd60e51b815260206004820152603860248201527f555550535570677261646561626c653a206d757374206e6f742062652063616c60448201527f6c6564207468726f7567682064656c656761746563616c6c00000000000000006064820152608401610280565b506000805160206111c483398151915290565b60c9546001600160a01b0316331461080c5760405162461bcd60e51b8152600401610280906110c1565b6108166000610b71565b565b6001600160a01b03818116600090815260ff602052604081205490911633141561084457506001919050565b506000919050565b600054610100900460ff166108675760005460ff161561086b565b303b155b6108ce5760405162461bcd60e51b815260206004820152602e60248201527f496e697469616c697a61626c653a20636f6e747261637420697320616c72656160448201526d191e481a5b9a5d1a585b1a5e995960921b6064820152608401610280565b600054610100900460ff161580156108f0576000805461ffff19166101011790555b6108f8610bc3565b610900610bf2565b60fd80546001600160a01b0319166001600160a01b038416179055600260fe5580156105a3576000805461ff00191690555050565b60c9546001600160a01b0316331461095f5760405162461bcd60e51b8152600401610280906110c1565b6001600160a01b0381166109c45760405162461bcd60e51b815260206004820152602660248201527f4f776e61626c653a206e6577206f776e657220697320746865207a65726f206160448201526564647265737360d01b6064820152608401610280565b61031d81610b71565b60c9546001600160a01b0316331461031d5760405162461bcd60e51b8152600401610280906110c1565b7f4910fdfa16fed3260ed0e7147f7cc6da11a60208b5b9406d12a635614ffd91435460ff1615610a2a5761065d83610c19565b826001600160a01b03166352d1902d6040518163ffffffff1660e01b815260040160206040518083038186803b158015610a6357600080fd5b505afa925050508015610a93575060408051601f3d908101601f19168201909252610a9091810190610faa565b60015b610af65760405162461bcd60e51b815260206004820152602e60248201527f45524331393637557067726164653a206e657720696d706c656d656e7461746960448201526d6f6e206973206e6f74205555505360901b6064820152608401610280565b6000805160206111c48339815191528114610b655760405162461bcd60e51b815260206004820152602960248201527f45524331393637557067726164653a20756e737570706f727465642070726f786044820152681a58589b195555525160ba1b6064820152608401610280565b5061065d838383610cb5565b60c980546001600160a01b038381166001600160a01b0319831681179093556040519116919082907f8be0079c531659141344cd1fd0a4f28419497f9722a3daafe3b4186f6b6457e090600090a35050565b600054610100900460ff16610bea5760405162461bcd60e51b8152600401610280906110f6565b610816610ce0565b600054610100900460ff166108165760405162461bcd60e51b8152600401610280906110f6565b6001600160a01b0381163b610c865760405162461bcd60e51b815260206004820152602d60248201527f455243313936373a206e657720696d706c656d656e746174696f6e206973206e60448201526c1bdd08184818dbdb9d1c9858dd609a1b6064820152608401610280565b6000805160206111c483398151915280546001600160a01b0319166001600160a01b0392909216919091179055565b610cbe83610d10565b600082511180610ccb5750805b1561065d57610cda8383610d50565b50505050565b600054610100900460ff16610d075760405162461bcd60e51b8152600401610280906110f6565b61081633610b71565b610d1981610c19565b6040516001600160a01b038216907fbc7cd75a20ee27fd9adebab32041f755214dbc6bffa90cc0225b39da2e5c2d3b90600090a250565b60606001600160a01b0383163b610db85760405162461bcd60e51b815260206004820152602660248201527f416464726573733a2064656c65676174652063616c6c20746f206e6f6e2d636f6044820152651b9d1c9858dd60d21b6064820152608401610280565b600080846001600160a01b031684604051610dd39190610fda565b600060405180830381855af49150503d8060008114610e0e576040519150601f19603f3d011682016040523d82523d6000602084013e610e13565b606091505b5091509150610e3b82826040518060600160405280602781526020016111e460279139610e44565b95945050505050565b60608315610e53575081610e7d565b825115610e635782518084602001fd5b8160405162461bcd60e51b81526004016102809190610ff6565b9392505050565b600060208284031215610e95578081fd5b8135610e7d816111ae565b60008060408385031215610eb2578081fd5b8235610ebd816111ae565b946020939093013593505050565b60008060408385031215610edd578182fd5b8235610ee8816111ae565b9150602083013567ffffffffffffffff80821115610f04578283fd5b818501915085601f830112610f17578283fd5b813581811115610f2957610f29611198565b604051601f8201601f19908116603f01168101908382118183101715610f5157610f51611198565b81604052828152886020848701011115610f69578586fd5b82602086016020830137856020848301015280955050505050509250929050565b600060208284031215610f9b578081fd5b81518015158114610e7d578182fd5b600060208284031215610fbb578081fd5b5051919050565b600060208284031215610fd3578081fd5b5035919050565b60008251610fec81846020870161116c565b9190910192915050565b602081526000825180602084015261101581604085016020870161116c565b601f01601f19169190910160400192915050565b6020808252602c908201527f46756e6374696f6e206d7573742062652063616c6c6564207468726f7567682060408201526b19195b1959d85d1958d85b1b60a21b606082015260800190565b6020808252602c908201527f46756e6374696f6e206d7573742062652063616c6c6564207468726f7567682060408201526b6163746976652070726f787960a01b606082015260800190565b6020808252818101527f4f776e61626c653a2063616c6c6572206973206e6f7420746865206f776e6572604082015260600190565b6020808252602b908201527f496e697469616c697a61626c653a20636f6e7472616374206973206e6f74206960408201526a6e697469616c697a696e6760a81b606082015260800190565b600081600019048311821515161561116757634e487b7160e01b81526011600452602481fd5b500290565b60005b8381101561118757818101518382015260200161116f565b83811115610cda5750506000910152565b634e487b7160e01b600052604160045260246000fd5b6001600160a01b038116811461031d57600080fdfe360894a13ba1a3210667c828492db98dca3e2076cc3735a920a3ca505d382bbc416464726573733a206c6f772d6c6576656c2064656c65676174652063616c6c206661696c6564a264697066735822122017140d0fa6044564b892d25a289591039c0ada4e048c38bba558e4f8d5956f9664736f6c63430008040033",
  "linkReferences": {},
  "deployedLinkReferences": {}
}