{
  "_format": "hh-sol-artifact-1",
  "contractName": "NFT",
  "sourceName": "contracts/NFT.sol",
  "abi": [
    {
      "inputs": [
        {
          "internalType": "address",
          "name": "marketplaceAddress",
          "type": "address"
        },
        {
          "internalType": "string",
          "name": "_URI",
          "type": "string"
        }
      ],
      "stateMutability": "nonpayable",
      "type": "constructor"
    },
    {
      "anonymous": false,
      "inputs": [
        {
          "indexed": true,
          "internalType": "address",
          "name": "owner",
          "type": "address"
        },
        {
          "indexed": true,
          "internalType": "address",
          "name": "approved",
          "type": "address"
        },
        {
          "indexed": true,
          "internalType": "uint256",
          "name": "tokenId",
          "type": "uint256"
        }
      ],
      "name": "Approval",
      "type": "event"
    },
    {
      "anonymous": false,
      "inputs": [
        {
          "indexed": true,
          "internalType": "address",
          "name": "owner",
          "type": "address"
        },
        {
          "indexed": true,
          "internalType": "address",
          "name": "operator",
          "type": "address"
        },
        {
          "indexed": false,
          "internalType": "bool",
          "name": "approved",
          "type": "bool"
        }
      ],
      "name": "ApprovalForAll",
      "type": "event"
    },
    {
      "anonymous": false,
      "inputs": [
        {
          "indexed": true,
          "internalType": "address",
          "name": "previousOwner",
          "type": "address"
        },
        {
          "indexed": true,
          "internalType": "address",
          "name": "newOwner",
          "type": "address"
        }
      ],
      "name": "OwnershipTransferred",
      "type": "event"
    },
    {
      "anonymous": false,
      "inputs": [
        {
          "indexed": false,
          "internalType": "address",
          "name": "account",
          "type": "address"
        }
      ],
      "name": "Paused",
      "type": "event"
    },
    {
      "anonymous": false,
      "inputs": [
        {
          "indexed": true,
          "internalType": "address",
          "name": "from",
          "type": "address"
        },
        {
          "indexed": true,
          "internalType": "address",
          "name": "to",
          "type": "address"
        },
        {
          "indexed": true,
          "internalType": "uint256",
          "name": "tokenId",
          "type": "uint256"
        }
      ],
      "name": "Transfer",
      "type": "event"
    },
    {
      "anonymous": false,
      "inputs": [
        {
          "indexed": false,
          "internalType": "address",
          "name": "account",
          "type": "address"
        }
      ],
      "name": "Unpaused",
      "type": "event"
    },
    {
      "inputs": [
        {
          "internalType": "address",
          "name": "to",
          "type": "address"
        },
        {
          "internalType": "uint256",
          "name": "tokenId",
          "type": "uint256"
        }
      ],
      "name": "approve",
      "outputs": [],
      "stateMutability": "nonpayable",
      "type": "function"
    },
    {
      "inputs": [
        {
          "internalType": "address",
          "name": "owner",
          "type": "address"
        }
      ],
      "name": "balanceOf",
      "outputs": [
        {
          "internalType": "uint256",
          "name": "",
          "type": "uint256"
        }
      ],
      "stateMutability": "view",
      "type": "function"
    },
    {
      "inputs": [
        {
          "internalType": "string",
          "name": "_newUri",
          "type": "string"
        }
      ],
      "name": "changeUri",
      "outputs": [
        {
          "internalType": "bool",
          "name": "",
          "type": "bool"
        }
      ],
      "stateMutability": "nonpayable",
      "type": "function"
    },
    {
      "inputs": [],
      "name": "createNFT",
      "outputs": [
        {
          "internalType": "uint256",
          "name": "result",
          "type": "uint256"
        }
      ],
      "stateMutability": "nonpayable",
      "type": "function"
    },
    {
      "inputs": [
        {
          "internalType": "uint256",
          "name": "tokenId",
          "type": "uint256"
        }
      ],
      "name": "getApproved",
      "outputs": [
        {
          "internalType": "address",
          "name": "",
          "type": "address"
        }
      ],
      "stateMutability": "view",
      "type": "function"
    },
    {
      "inputs": [
        {
          "internalType": "address",
          "name": "owner",
          "type": "address"
        },
        {
          "internalType": "address",
          "name": "operator",
          "type": "address"
        }
      ],
      "name": "isApprovedForAll",
      "outputs": [
        {
          "internalType": "bool",
          "name": "",
          "type": "bool"
        }
      ],
      "stateMutability": "view",
      "type": "function"
    },
    {
      "inputs": [],
      "name": "name",
      "outputs": [
        {
          "internalType": "string",
          "name": "",
          "type": "string"
        }
      ],
      "stateMutability": "view",
      "type": "function"
    },
    {
      "inputs": [],
      "name": "owner",
      "outputs": [
        {
          "internalType": "address",
          "name": "",
          "type": "address"
        }
      ],
      "stateMutability": "view",
      "type": "function"
    },
    {
      "inputs": [
        {
          "internalType": "uint256",
          "name": "tokenId",
          "type": "uint256"
        }
      ],
      "name": "ownerOf",
      "outputs": [
        {
          "internalType": "address",
          "name": "",
          "type": "address"
        }
      ],
      "stateMutability": "view",
      "type": "function"
    },
    {
      "inputs": [],
      "name": "pause",
      "outputs": [],
      "stateMutability": "nonpayable",
      "type": "function"
    },
    {
      "inputs": [],
      "name": "paused",
      "outputs": [
        {
          "internalType": "bool",
          "name": "",
          "type": "bool"
        }
      ],
      "stateMutability": "view",
      "type": "function"
    },
    {
      "inputs": [],
      "name": "price",
      "outputs": [
        {
          "internalType": "uint256",
          "name": "",
          "type": "uint256"
        }
      ],
      "stateMutability": "view",
      "type": "function"
    },
    {
      "inputs": [],
      "name": "renounceOwnership",
      "outputs": [],
      "stateMutability": "nonpayable",
      "type": "function"
    },
    {
      "inputs": [
        {
          "internalType": "address",
          "name": "from",
          "type": "address"
        },
        {
          "internalType": "address",
          "name": "to",
          "type": "address"
        },
        {
          "internalType": "uint256",
          "name": "tokenId",
          "type": "uint256"
        }
      ],
      "name": "safeTransferFrom",
      "outputs": [],
      "stateMutability": "nonpayable",
      "type": "function"
    },
    {
      "inputs": [
        {
          "internalType": "address",
          "name": "from",
          "type": "address"
        },
        {
          "internalType": "address",
          "name": "to",
          "type": "address"
        },
        {
          "internalType": "uint256",
          "name": "tokenId",
          "type": "uint256"
        },
        {
          "internalType": "bytes",
          "name": "_data",
          "type": "bytes"
        }
      ],
      "name": "safeTransferFrom",
      "outputs": [],
      "stateMutability": "nonpayable",
      "type": "function"
    },
    {
      "inputs": [
        {
          "internalType": "address",
          "name": "operator",
          "type": "address"
        },
        {
          "internalType": "bool",
          "name": "approved",
          "type": "bool"
        }
      ],
      "name": "setApprovalForAll",
      "outputs": [],
      "stateMutability": "nonpayable",
      "type": "function"
    },
    {
      "inputs": [
        {
          "internalType": "bytes4",
          "name": "interfaceId",
          "type": "bytes4"
        }
      ],
      "name": "supportsInterface",
      "outputs": [
        {
          "internalType": "bool",
          "name": "",
          "type": "bool"
        }
      ],
      "stateMutability": "view",
      "type": "function"
    },
    {
      "inputs": [],
      "name": "symbol",
      "outputs": [
        {
          "internalType": "string",
          "name": "",
          "type": "string"
        }
      ],
      "stateMutability": "view",
      "type": "function"
    },
    {
      "inputs": [
        {
          "internalType": "uint256",
          "name": "index",
          "type": "uint256"
        }
      ],
      "name": "tokenByIndex",
      "outputs": [
        {
          "internalType": "uint256",
          "name": "",
          "type": "uint256"
        }
      ],
      "stateMutability": "view",
      "type": "function"
    },
    {
      "inputs": [
        {
          "internalType": "address",
          "name": "owner",
          "type": "address"
        },
        {
          "internalType": "uint256",
          "name": "index",
          "type": "uint256"
        }
      ],
      "name": "tokenOfOwnerByIndex",
      "outputs": [
        {
          "internalType": "uint256",
          "name": "",
          "type": "uint256"
        }
      ],
      "stateMutability": "view",
      "type": "function"
    },
    {
      "inputs": [
        {
          "internalType": "uint256",
          "name": "tokenId",
          "type": "uint256"
        }
      ],
      "name": "tokenURI",
      "outputs": [
        {
          "internalType": "string",
          "name": "",
          "type": "string"
        }
      ],
      "stateMutability": "view",
      "type": "function"
    },
    {
      "inputs": [],
      "name": "totalSupply",
      "outputs": [
        {
          "internalType": "uint256",
          "name": "",
          "type": "uint256"
        }
      ],
      "stateMutability": "view",
      "type": "function"
    },
    {
      "inputs": [
        {
          "internalType": "address",
          "name": "from",
          "type": "address"
        },
        {
          "internalType": "address",
          "name": "to",
          "type": "address"
        },
        {
          "internalType": "uint256",
          "name": "tokenId",
          "type": "uint256"
        }
      ],
      "name": "transferFrom",
      "outputs": [],
      "stateMutability": "nonpayable",
      "type": "function"
    },
    {
      "inputs": [
        {
          "internalType": "address",
          "name": "newOwner",
          "type": "address"
        }
      ],
      "name": "transferOwnership",
      "outputs": [],
      "stateMutability": "nonpayable",
      "type": "function"
    },
    {
      "inputs": [],
      "name": "unpause",
      "outputs": [],
      "stateMutability": "nonpayable",
      "type": "function"
    }
  ],
  "bytecode": "0x60a06040819052600060808190526200001b91600b9162000178565b506000600d553480156200002e57600080fd5b506040516200213a3803806200213a83398101604081905262000051916200021e565b604080518082018252601081526f4e78745368617265204552432037323160801b6020808301918252835180850190945260088452674e5854532d37323160c01b908401528151919291620000a99160009162000178565b508051620000bf90600190602084019062000178565b505050620000dc620000d66200012260201b60201c565b62000126565b600a805460ff60a01b19169055600c80546001600160a01b0319166001600160a01b03841617905580516200011990600b90602084019062000178565b5050506200036a565b3390565b600a80546001600160a01b038381166001600160a01b0319831681179093556040519116919082907f8be0079c531659141344cd1fd0a4f28419497f9722a3daafe3b4186f6b6457e090600090a35050565b828054620001869062000317565b90600052602060002090601f016020900481019282620001aa5760008555620001f5565b82601f10620001c557805160ff1916838001178555620001f5565b82800160010185558215620001f5579182015b82811115620001f5578251825591602001919060010190620001d8565b506200020392915062000207565b5090565b5b8082111562000203576000815560010162000208565b6000806040838503121562000231578182fd5b82516001600160a01b038116811462000248578283fd5b602084810151919350906001600160401b038082111562000267578384fd5b818601915086601f8301126200027b578384fd5b81518181111562000290576200029062000354565b604051601f8201601f19908116603f01168101908382118183101715620002bb57620002bb62000354565b816040528281528986848701011115620002d3578687fd5b8693505b82841015620002f65784840186015181850187015292850192620002d7565b828411156200030757868684830101525b8096505050505050509250929050565b600181811c908216806200032c57607f821691505b602082108114156200034e57634e487b7160e01b600052602260045260246000fd5b50919050565b634e487b7160e01b600052604160045260246000fd5b611dc0806200037a6000396000f3fe608060405234801561001057600080fd5b50600436106101735760003560e01c806370a08231116100de578063a035b1fe11610097578063c87b56dd11610071578063c87b56dd146102f3578063e985e9c514610306578063eb1f9f6e14610342578063f2fde38b1461035557600080fd5b8063a035b1fe146102c4578063a22cb465146102cd578063b88d4fde146102e057600080fd5b806370a0823114610280578063715018a6146102935780638456cb591461029b5780638a97ec2a146102a35780638da5cb5b146102ab57806395d89b41146102bc57600080fd5b80632f745c59116101305780632f745c591461021a5780633f4ba83a1461022d57806342842e0e146102355780634f6ccce7146102485780635c975abb1461025b5780636352211e1461026d57600080fd5b806301ffc9a71461017857806306fdde03146101a0578063081812fc146101b5578063095ea7b3146101e057806318160ddd146101f557806323b872dd14610207575b600080fd5b61018b610186366004611a40565b610368565b60405190151581526020015b60405180910390f35b6101a8610393565b6040516101979190611b6e565b6101c86101c3366004611abe565b610425565b6040516001600160a01b039091168152602001610197565b6101f36101ee366004611a17565b6104bf565b005b6008545b604051908152602001610197565b6101f3610215366004611929565b6105d5565b6101f9610228366004611a17565b610606565b6101f361069c565b6101f3610243366004611929565b6106d0565b6101f9610256366004611abe565b6106eb565b600a54600160a01b900460ff1661018b565b6101c861027b366004611abe565b61078c565b6101f961028e3660046118dd565b610803565b6101f361088a565b6101f36108be565b6101f96108f0565b600a546001600160a01b03166101c8565b6101a8610930565b6101f9600e5481565b6101f36102db3660046119dd565b61093f565b6101f36102ee366004611964565b61094e565b6101a8610301366004611abe565b610986565b61018b6103143660046118f7565b6001600160a01b03918216600090815260056020908152604080832093909416825291909152205460ff1690565b61018b610350366004611a78565b610a61565b6101f36103633660046118dd565b610aac565b60006001600160e01b0319821663780e9d6360e01b148061038d575061038d82610b47565b92915050565b6060600080546103a290611cc8565b80601f01602080910402602001604051908101604052809291908181526020018280546103ce90611cc8565b801561041b5780601f106103f05761010080835404028352916020019161041b565b820191906000526020600020905b8154815290600101906020018083116103fe57829003601f168201915b5050505050905090565b6000818152600260205260408120546001600160a01b03166104a35760405162461bcd60e51b815260206004820152602c60248201527f4552433732313a20617070726f76656420717565727920666f72206e6f6e657860448201526b34b9ba32b73a103a37b5b2b760a11b60648201526084015b60405180910390fd5b506000908152600460205260409020546001600160a01b031690565b60006104ca8261078c565b9050806001600160a01b0316836001600160a01b031614156105385760405162461bcd60e51b815260206004820152602160248201527f4552433732313a20617070726f76616c20746f2063757272656e74206f776e656044820152603960f91b606482015260840161049a565b336001600160a01b038216148061055457506105548133610314565b6105c65760405162461bcd60e51b815260206004820152603860248201527f4552433732313a20617070726f76652063616c6c6572206973206e6f74206f7760448201527f6e6572206e6f7220617070726f76656420666f7220616c6c0000000000000000606482015260840161049a565b6105d08383610b97565b505050565b6105df3382610c05565b6105fb5760405162461bcd60e51b815260040161049a90611c08565b6105d0838383610cfc565b600061061183610803565b82106106735760405162461bcd60e51b815260206004820152602b60248201527f455243373231456e756d657261626c653a206f776e657220696e646578206f7560448201526a74206f6620626f756e647360a81b606482015260840161049a565b506001600160a01b03919091166000908152600660209081526040808320938352929052205490565b600a546001600160a01b031633146106c65760405162461bcd60e51b815260040161049a90611bd3565b6106ce610ea3565b565b6105d08383836040518060200160405280600081525061094e565b60006106f660085490565b82106107595760405162461bcd60e51b815260206004820152602c60248201527f455243373231456e756d657261626c653a20676c6f62616c20696e646578206f60448201526b7574206f6620626f756e647360a01b606482015260840161049a565b6008828154811061077a57634e487b7160e01b600052603260045260246000fd5b90600052602060002001549050919050565b6000818152600260205260408120546001600160a01b03168061038d5760405162461bcd60e51b815260206004820152602960248201527f4552433732313a206f776e657220717565727920666f72206e6f6e657869737460448201526832b73a103a37b5b2b760b91b606482015260840161049a565b60006001600160a01b03821661086e5760405162461bcd60e51b815260206004820152602a60248201527f4552433732313a2062616c616e636520717565727920666f7220746865207a65604482015269726f206164647265737360b01b606482015260840161049a565b506001600160a01b031660009081526003602052604090205490565b600a546001600160a01b031633146108b45760405162461bcd60e51b815260040161049a90611bd3565b6106ce6000610f40565b600a546001600160a01b031633146108e85760405162461bcd60e51b815260040161049a90611bd3565b6106ce610f92565b600d80546000918261090183611d03565b919050555061091233600d5461101a565b600c54610929906001600160a01b0316600161093f565b50600d5490565b6060600180546103a290611cc8565b61094a338383611034565b5050565b6109583383610c05565b6109745760405162461bcd60e51b815260040161049a90611c08565b61098084848484611103565b50505050565b6000818152600260205260409020546060906001600160a01b0316610a055760405162461bcd60e51b815260206004820152602f60248201527f4552433732314d657461646174613a2055524920717565727920666f72206e6f60448201526e3732bc34b9ba32b73a103a37b5b2b760891b606482015260840161049a565b6000610a0f611136565b90506000815111610a2f5760405180602001604052806000815250610a5a565b80610a3984611145565b604051602001610a4a929190611b02565b6040516020818303038152906040525b9392505050565b600a546000906001600160a01b03163314610a8e5760405162461bcd60e51b815260040161049a90611bd3565b8151610aa190600b9060208501906117b7565b50600190505b919050565b600a546001600160a01b03163314610ad65760405162461bcd60e51b815260040161049a90611bd3565b6001600160a01b038116610b3b5760405162461bcd60e51b815260206004820152602660248201527f4f776e61626c653a206e6577206f776e657220697320746865207a65726f206160448201526564647265737360d01b606482015260840161049a565b610b4481610f40565b50565b60006001600160e01b031982166380ac58cd60e01b1480610b7857506001600160e01b03198216635b5e139f60e01b145b8061038d57506301ffc9a760e01b6001600160e01b031983161461038d565b600081815260046020526040902080546001600160a01b0319166001600160a01b0384169081179091558190610bcc8261078c565b6001600160a01b03167f8c5be1e5ebec7d5bd14f71427d1e84f3dd0314c0f7b2291e5b200ac8c7c3b92560405160405180910390a45050565b6000818152600260205260408120546001600160a01b0316610c7e5760405162461bcd60e51b815260206004820152602c60248201527f4552433732313a206f70657261746f7220717565727920666f72206e6f6e657860448201526b34b9ba32b73a103a37b5b2b760a11b606482015260840161049a565b6000610c898361078c565b9050806001600160a01b0316846001600160a01b03161480610cc45750836001600160a01b0316610cb984610425565b6001600160a01b0316145b80610cf457506001600160a01b0380821660009081526005602090815260408083209388168352929052205460ff165b949350505050565b826001600160a01b0316610d0f8261078c565b6001600160a01b031614610d735760405162461bcd60e51b815260206004820152602560248201527f4552433732313a207472616e736665722066726f6d20696e636f72726563742060448201526437bbb732b960d91b606482015260840161049a565b6001600160a01b038216610dd55760405162461bcd60e51b8152602060048201526024808201527f4552433732313a207472616e7366657220746f20746865207a65726f206164646044820152637265737360e01b606482015260840161049a565b610de083838361125f565b610deb600082610b97565b6001600160a01b0383166000908152600360205260408120805460019290610e14908490611c85565b90915550506001600160a01b0382166000908152600360205260408120805460019290610e42908490611c59565b909155505060008181526002602052604080822080546001600160a01b0319166001600160a01b0386811691821790925591518493918716917fddf252ad1be2c89b69c2b068fc378daa952ba7f163c4a11628f55a4df523b3ef91a4505050565b600a54600160a01b900460ff16610ef35760405162461bcd60e51b815260206004820152601460248201527314185d5cd8589b194e881b9bdd081c185d5cd95960621b604482015260640161049a565b600a805460ff60a01b191690557f5db9ee0a495bf2e6ff9c91a7834c1ba4fdd244a5e8aa4e537bd38aeae4b073aa335b6040516001600160a01b03909116815260200160405180910390a1565b600a80546001600160a01b038381166001600160a01b0319831681179093556040519116919082907f8be0079c531659141344cd1fd0a4f28419497f9722a3daafe3b4186f6b6457e090600090a35050565b600a54600160a01b900460ff1615610fdf5760405162461bcd60e51b815260206004820152601060248201526f14185d5cd8589b194e881c185d5cd95960821b604482015260640161049a565b600a805460ff60a01b1916600160a01b1790557f62e78cea01bee320cd4e420270b5ea74000d11b0c9f74754ebdbfc544b05a258610f233390565b61094a8282604051806020016040528060008152506112b7565b816001600160a01b0316836001600160a01b031614156110965760405162461bcd60e51b815260206004820152601960248201527f4552433732313a20617070726f766520746f2063616c6c657200000000000000604482015260640161049a565b6001600160a01b03838116600081815260056020908152604080832094871680845294825291829020805460ff191686151590811790915591519182527f17307eab39ab6107e8899845ad3d59bd9653f200f220920489ca2b5937696c31910160405180910390a3505050565b61110e848484610cfc565b61111a848484846112ea565b6109805760405162461bcd60e51b815260040161049a90611b81565b6060600b80546103a290611cc8565b6060816111695750506040805180820190915260018152600360fc1b602082015290565b8160005b8115611193578061117d81611d03565b915061118c9050600a83611c71565b915061116d565b60008167ffffffffffffffff8111156111bc57634e487b7160e01b600052604160045260246000fd5b6040519080825280601f01601f1916602001820160405280156111e6576020820181803683370190505b5090505b8415610cf4576111fb600183611c85565b9150611208600a86611d1e565b611213906030611c59565b60f81b81838151811061123657634e487b7160e01b600052603260045260246000fd5b60200101906001600160f81b031916908160001a905350611258600a86611c71565b94506111ea565b600a54600160a01b900460ff16156112ac5760405162461bcd60e51b815260206004820152601060248201526f14185d5cd8589b194e881c185d5cd95960821b604482015260640161049a565b6105d08383836113f7565b6112c183836114af565b6112ce60008484846112ea565b6105d05760405162461bcd60e51b815260040161049a90611b81565b60006001600160a01b0384163b156113ec57604051630a85bd0160e11b81526001600160a01b0385169063150b7a029061132e903390899088908890600401611b31565b602060405180830381600087803b15801561134857600080fd5b505af1925050508015611378575060408051601f3d908101601f1916820190925261137591810190611a5c565b60015b6113d2573d8080156113a6576040519150601f19603f3d011682016040523d82523d6000602084013e6113ab565b606091505b5080516113ca5760405162461bcd60e51b815260040161049a90611b81565b805181602001fd5b6001600160e01b031916630a85bd0160e11b149050610cf4565b506001949350505050565b6001600160a01b0383166114525761144d81600880546000838152600960205260408120829055600182018355919091527ff3f7a9fe364faab93b216da50a3214154f22a0a2b415b23a84c8169e8b636ee30155565b611475565b816001600160a01b0316836001600160a01b0316146114755761147583826115fd565b6001600160a01b03821661148c576105d08161169a565b826001600160a01b0316826001600160a01b0316146105d0576105d08282611773565b6001600160a01b0382166115055760405162461bcd60e51b815260206004820181905260248201527f4552433732313a206d696e7420746f20746865207a65726f2061646472657373604482015260640161049a565b6000818152600260205260409020546001600160a01b03161561156a5760405162461bcd60e51b815260206004820152601c60248201527f4552433732313a20746f6b656e20616c7265616479206d696e74656400000000604482015260640161049a565b6115766000838361125f565b6001600160a01b038216600090815260036020526040812080546001929061159f908490611c59565b909155505060008181526002602052604080822080546001600160a01b0319166001600160a01b03861690811790915590518392907fddf252ad1be2c89b69c2b068fc378daa952ba7f163c4a11628f55a4df523b3ef908290a45050565b6000600161160a84610803565b6116149190611c85565b600083815260076020526040902054909150808214611667576001600160a01b03841660009081526006602090815260408083208584528252808320548484528184208190558352600790915290208190555b5060009182526007602090815260408084208490556001600160a01b039094168352600681528383209183525290812055565b6008546000906116ac90600190611c85565b600083815260096020526040812054600880549394509092849081106116e257634e487b7160e01b600052603260045260246000fd5b90600052602060002001549050806008838154811061171157634e487b7160e01b600052603260045260246000fd5b600091825260208083209091019290925582815260099091526040808220849055858252812055600880548061175757634e487b7160e01b600052603160045260246000fd5b6001900381819060005260206000200160009055905550505050565b600061177e83610803565b6001600160a01b039093166000908152600660209081526040808320868452825280832085905593825260079052919091209190915550565b8280546117c390611cc8565b90600052602060002090601f0160209004810192826117e5576000855561182b565b82601f106117fe57805160ff191683800117855561182b565b8280016001018555821561182b579182015b8281111561182b578251825591602001919060010190611810565b5061183792915061183b565b5090565b5b80821115611837576000815560010161183c565b600067ffffffffffffffff8084111561186b5761186b611d5e565b604051601f8501601f19908116603f0116810190828211818310171561189357611893611d5e565b816040528093508581528686860111156118ac57600080fd5b858560208301376000602087830101525050509392505050565b80356001600160a01b0381168114610aa757600080fd5b6000602082840312156118ee578081fd5b610a5a826118c6565b60008060408385031215611909578081fd5b611912836118c6565b9150611920602084016118c6565b90509250929050565b60008060006060848603121561193d578081fd5b611946846118c6565b9250611954602085016118c6565b9150604084013590509250925092565b60008060008060808587031215611979578081fd5b611982856118c6565b9350611990602086016118c6565b925060408501359150606085013567ffffffffffffffff8111156119b2578182fd5b8501601f810187136119c2578182fd5b6119d187823560208401611850565b91505092959194509250565b600080604083850312156119ef578182fd5b6119f8836118c6565b915060208301358015158114611a0c578182fd5b809150509250929050565b60008060408385031215611a29578182fd5b611a32836118c6565b946020939093013593505050565b600060208284031215611a51578081fd5b8135610a5a81611d74565b600060208284031215611a6d578081fd5b8151610a5a81611d74565b600060208284031215611a89578081fd5b813567ffffffffffffffff811115611a9f578182fd5b8201601f81018413611aaf578182fd5b610cf484823560208401611850565b600060208284031215611acf578081fd5b5035919050565b60008151808452611aee816020860160208601611c9c565b601f01601f19169290920160200192915050565b60008351611b14818460208801611c9c565b835190830190611b28818360208801611c9c565b01949350505050565b6001600160a01b0385811682528416602082015260408101839052608060608201819052600090611b6490830184611ad6565b9695505050505050565b602081526000610a5a6020830184611ad6565b60208082526032908201527f4552433732313a207472616e7366657220746f206e6f6e20455243373231526560408201527131b2b4bb32b91034b6b83632b6b2b73a32b960711b606082015260800190565b6020808252818101527f4f776e61626c653a2063616c6c6572206973206e6f7420746865206f776e6572604082015260600190565b60208082526031908201527f4552433732313a207472616e736665722063616c6c6572206973206e6f74206f6040820152701ddb995c881b9bdc88185c1c1c9bdd9959607a1b606082015260800190565b60008219821115611c6c57611c6c611d32565b500190565b600082611c8057611c80611d48565b500490565b600082821015611c9757611c97611d32565b500390565b60005b83811015611cb7578181015183820152602001611c9f565b838111156109805750506000910152565b600181811c90821680611cdc57607f821691505b60208210811415611cfd57634e487b7160e01b600052602260045260246000fd5b50919050565b6000600019821415611d1757611d17611d32565b5060010190565b600082611d2d57611d2d611d48565b500690565b634e487b7160e01b600052601160045260246000fd5b634e487b7160e01b600052601260045260246000fd5b634e487b7160e01b600052604160045260246000fd5b6001600160e01b031981168114610b4457600080fdfea2646970667358221220043e96ab9faa321941c6cff28a272ff072c0e4c20751dc32bbaf85b787008a5c64736f6c63430008040033",
  "linkReferences": {},
  "deployedLinkReferences": {}
}